{
  "transactions": [
    {
      "hash": "0xb352beeb961e169ac39bfd3f7d118317183259f12e8e17b36b9dfd6de4bbc181",
      "transactionType": "CALL",
      "contractName": null,
      "contractAddress": "0x4070c8325e278ca1056e602e08d16d2d5cd79b27",
      "function": "mint(address,uint256)",
      "arguments": [
        "0x22a30787E360741fB0aBa7f3A90e5AB2340F9435",
        "100000000000000000000"
      ],
      "transaction": {
        "from": "0xa89543a7145c68e52a4d584f1ceb123605131211",
        "to": "0x4070c8325e278ca1056e602e08d16d2d5cd79b27",
        "gas": "0x114f0",
        "value": "0x0",
        "input": "0x40c10f1900000000000000000000000022a30787e360741fb0aba7f3a90e5ab2340f94350000000000000000000000000000000000000000000000056bc75e2d63100000",
        "nonce": "0xd",
        "chainId": "0x14a34"
      },
      "additionalContracts": [],
      "isFixedGasLimit": false
    }
  ],
  "receipts": [
    {
      "status": "0x1",
      "cumulativeGasUsed": "0x2f0296",
      "logs": [
        {
          "address": "0x4070c8325e278ca1056e602e08d16d2d5cd79b27",
          "topics": [
            "0xddf252ad1be2c89b69c2b068fc378daa952ba7f163c4a11628f55a4df523b3ef",
            "0x0000000000000000000000000000000000000000000000000000000000000000",
            "0x00000000000000000000000022a30787e360741fb0aba7f3a90e5ab2340f9435"
          ],
          "data": "0x0000000000000000000000000000000000000000000000056bc75e2d63100000",
          "blockHash": "0xf516f38cac6eb975932fa038797b1081b65afd252a211a9645a649198c6b4324",
          "blockNumber": "0x12ae5ab",
          "transactionHash": "0xb352beeb961e169ac39bfd3f7d118317183259f12e8e17b36b9dfd6de4bbc181",
          "transactionIndex": "0x10",
          "logIndex": "0x31",
          "removed": false
        }
      ],
      "logsBloom": "0x00000000000000000000000000000000000000000000000000000000000000000000000000000000000000000000000000000001000000000000000000000000000000000000000000000008000000000000000000040000000000000000200000000000020000000000000000000800000000000000000000000010000000000000000000000000000000000000000000000020000000000000000000004000000000000000000000000000000000000000000000000000000020000000000000000002000000000000000000000000000000000000000000000000000020000000000000000000000000000000000000000000000000000000000000000000",
      "type": "0x2",
      "transactionHash": "0xb352beeb961e169ac39bfd3f7d118317183259f12e8e17b36b9dfd6de4bbc181",
      "transactionIndex": "0x10",
      "blockHash": "0xf516f38cac6eb975932fa038797b1081b65afd252a211a9645a649198c6b4324",
      "blockNumber": "0x12ae5ab",
      "gasUsed": "0xc880",
      "effectiveGasPrice": "0x1881d",
      "from": "0xa89543a7145c68e52a4d584f1ceb123605131211",
      "to": "0x4070c8325e278ca1056e602e08d16d2d5cd79b27",
      "contractAddress": null,
      "l1BaseFeeScalar": "0x44d",
      "l1BlobBaseFee": "0x54a0a3f064",
      "l1BlobBaseFeeScalar": "0xa118b",
      "l1Fee": "0x15d80d542b88",
      "l1GasPrice": "0x47bbe8c02",
      "l1GasUsed": "0x640"
    }
  ],
  "libraries": [],
  "pending": [],
  "returns": {},
  "timestamp": 1734945336,
  "chain": 84532,
  "commit": "90e23d3"
}