{
  "transactions": [
    {
      "hash": "0x428c6695b79733721671f6718751721678c35a9eff5876bfe35168888794fca2",
      "transactionType": "CALL",
      "contractName": null,
      "contractAddress": "0x4070c8325e278ca1056e602e08d16d2d5cd79b27",
      "function": "mint(address,uint256)",
      "arguments": [
        "0xF14C781919d2Cf3D72E4249FfC450fe40f2522e9",
        "100000000000000000000"
      ],
      "transaction": {
        "from": "0xa89543a7145c68e52a4d584f1ceb123605131211",
        "to": "0x4070c8325e278ca1056e602e08d16d2d5cd79b27",
        "gas": "0x114f0",
        "value": "0x0",
        "input": "0x40c10f19000000000000000000000000f14c781919d2cf3d72e4249ffc450fe40f2522e90000000000000000000000000000000000000000000000056bc75e2d63100000",
        "nonce": "0x18",
        "chainId": "0x14a34"
      },
      "additionalContracts": [],
      "isFixedGasLimit": false
    }
  ],
  "receipts": [
    {
      "status": "0x1",
      "cumulativeGasUsed": "0x76aac8",
      "logs": [
        {
          "address": "0x4070c8325e278ca1056e602e08d16d2d5cd79b27",
          "topics": [
            "0xddf252ad1be2c89b69c2b068fc378daa952ba7f163c4a11628f55a4df523b3ef",
            "0x0000000000000000000000000000000000000000000000000000000000000000",
            "0x000000000000000000000000f14c781919d2cf3d72e4249ffc450fe40f2522e9"
          ],
          "data": "0x0000000000000000000000000000000000000000000000056bc75e2d63100000",
          "blockHash": "0xef212e2145ef4d26b7da4948f902b6ab729ffb64da50c46d515dc16b6e02192c",
          "blockNumber": "0x12b9331",
          "transactionHash": "0x428c6695b79733721671f6718751721678c35a9eff5876bfe35168888794fca2",
          "transactionIndex": "0x13",
          "logIndex": "0x62",
          "removed": false
        }
      ],
      "logsBloom": "0x00000000000000000000000000000000000000000000000000000000000080000000000000000000000000000000000000000000000000000000000000000000000040000000000000000008000000000000000000000000000000000000200000000000020000000000000000000800000000000000000000000010000000000000000000000000000000000000000000000020000000000000000000000000000000000000000000000000000000000000000000000000000020000000000080000002000000000000000000000000000000000000000000000000000020000000000000000000000000000000000000000000000000000000000000000000",
      "type": "0x2",
      "transactionHash": "0x428c6695b79733721671f6718751721678c35a9eff5876bfe35168888794fca2",
      "transactionIndex": "0x13",
      "blockHash": "0xef212e2145ef4d26b7da4948f902b6ab729ffb64da50c46d515dc16b6e02192c",
      "blockNumber": "0x12b9331",
      "gasUsed": "0xc880",
      "effectiveGasPrice": "0xc634",
      "from": "0xa89543a7145c68e52a4d584f1ceb123605131211",
      "to": "0x4070c8325e278ca1056e602e08d16d2d5cd79b27",
      "contractAddress": null,
      "l1BaseFeeScalar": "0x44d",
      "l1BlobBaseFee": "0x6b1b4fab51",
      "l1BlobBaseFeeScalar": "0xa118b",
      "l1Fee": "0x1ba7a9705fe0",
      "l1GasPrice": "0x6ef583551",
      "l1GasUsed": "0x640"
    }
  ],
  "libraries": [],
  "pending": [],
  "returns": {},
  "timestamp": 1735034179,
  "chain": 84532,
  "commit": "8a5958e"
}