{
  "transactions": [
    {
      "hash": "0x081c666e3d11a7548049911bdb0e04bee87a1cc8aa343380bd3d81504a26cf4d",
      "transactionType": "CALL",
      "contractName": null,
      "contractAddress": "0x4070c8325e278ca1056e602e08d16d2d5cd79b27",
      "function": "mint(address,uint256)",
      "arguments": [
        "0x5dE7584039248638B9DdF72670318ba3fD2037CE",
        "100000000000000000000"
      ],
      "transaction": {
        "from": "0xa89543a7145c68e52a4d584f1ceb123605131211",
        "to": "0x4070c8325e278ca1056e602e08d16d2d5cd79b27",
        "gas": "0x114f0",
        "value": "0x0",
        "input": "0x40c10f190000000000000000000000005de7584039248638b9ddf72670318ba3fd2037ce0000000000000000000000000000000000000000000000056bc75e2d63100000",
        "nonce": "0x14",
        "chainId": "0x14a34"
      },
      "additionalContracts": [],
      "isFixedGasLimit": false
    }
  ],
  "receipts": [
    {
      "status": "0x1",
      "cumulativeGasUsed": "0x2635b7",
      "logs": [
        {
          "address": "0x4070c8325e278ca1056e602e08d16d2d5cd79b27",
          "topics": [
            "0xddf252ad1be2c89b69c2b068fc378daa952ba7f163c4a11628f55a4df523b3ef",
            "0x0000000000000000000000000000000000000000000000000000000000000000",
            "0x0000000000000000000000005de7584039248638b9ddf72670318ba3fd2037ce"
          ],
          "data": "0x0000000000000000000000000000000000000000000000056bc75e2d63100000",
          "blockHash": "0x58e97b8be4a08567d3f0faf765b97a4f123eb399420809450892c3b1ce9218f6",
          "blockNumber": "0x12b73b5",
          "transactionHash": "0x081c666e3d11a7548049911bdb0e04bee87a1cc8aa343380bd3d81504a26cf4d",
          "transactionIndex": "0xa",
          "logIndex": "0x12",
          "removed": false
        }
      ],
      "logsBloom": "0x00000000000000000000000000000000000000000000000000000000000000000000000000000000000000000000000000000000000000000000000000000000000000000000000000000008000000000000000000000000000000001000200000000000020000000000000000000800000002000000000000000010000000000000000000000000000000000000000000000020000000000000000000000000000000000000000000000000000000000000000000000000000020000000000000000002000000000000000000000000000000000000000000000000000022000000000000000000000000000000000000000000000000000000000000000000",
      "type": "0x2",
      "transactionHash": "0x081c666e3d11a7548049911bdb0e04bee87a1cc8aa343380bd3d81504a26cf4d",
      "transactionIndex": "0xa",
      "blockHash": "0x58e97b8be4a08567d3f0faf765b97a4f123eb399420809450892c3b1ce9218f6",
      "blockNumber": "0x12b73b5",
      "gasUsed": "0xc880",
      "effectiveGasPrice": "0x18822",
      "from": "0xa89543a7145c68e52a4d584f1ceb123605131211",
      "to": "0x4070c8325e278ca1056e602e08d16d2d5cd79b27",
      "contractAddress": null,
      "l1BaseFeeScalar": "0x44d",
      "l1BlobBaseFee": "0x26977e0ac5",
      "l1BlobBaseFeeScalar": "0xa118b",
      "l1Fee": "0x9f887cf1069",
      "l1GasPrice": "0x36f0a69ea",
      "l1GasUsed": "0x640"
    }
  ],
  "libraries": [],
  "pending": [],
  "returns": {},
  "timestamp": 1735018058,
  "chain": 84532,
  "commit": "f0b4b00"
}