{
  "transactions": [
    {
      "hash": "0x62065c2097db92386f3f6c2d488f4a40cd3f9973d905fdc19b12b5d553e20633",
      "transactionType": "CALL",
      "contractName": null,
      "contractAddress": "0x4070c8325e278ca1056e602e08d16d2d5cd79b27",
      "function": "mint(address,uint256)",
      "arguments": [
        "0xC7F6Fe6A9ae0617bD712e1156Ac02dC07A9700E0",
        "100000000000000000000"
      ],
      "transaction": {
        "from": "0xa89543a7145c68e52a4d584f1ceb123605131211",
        "to": "0x4070c8325e278ca1056e602e08d16d2d5cd79b27",
        "gas": "0x114df",
        "value": "0x0",
        "input": "0x40c10f19000000000000000000000000c7f6fe6a9ae0617bd712e1156ac02dc07a9700e00000000000000000000000000000000000000000000000056bc75e2d63100000",
        "nonce": "0x23",
        "chainId": "0x14a34"
      },
      "additionalContracts": [],
      "isFixedGasLimit": false
    }
  ],
  "receipts": [
    {
      "status": "0x1",
      "cumulativeGasUsed": "0x49a507",
      "logs": [
        {
          "address": "0x4070c8325e278ca1056e602e08d16d2d5cd79b27",
          "topics": [
            "0xddf252ad1be2c89b69c2b068fc378daa952ba7f163c4a11628f55a4df523b3ef",
            "0x0000000000000000000000000000000000000000000000000000000000000000",
            "0x000000000000000000000000c7f6fe6a9ae0617bd712e1156ac02dc07a9700e0"
          ],
          "data": "0x0000000000000000000000000000000000000000000000056bc75e2d63100000",
          "blockHash": "0xf50d80330b71266d5bf5c5e112ecb918340e3538152324e053f6a573c3dd5c84",
          "blockNumber": "0x12c0e85",
          "transactionHash": "0x62065c2097db92386f3f6c2d488f4a40cd3f9973d905fdc19b12b5d553e20633",
          "transactionIndex": "0x22",
          "logIndex": "0x8b",
          "removed": false
        }
      ],
      "logsBloom": "0x00000000000000000000000000000000400000000000000000000000000000000000000000000000000000000000000000000000000000000000000000000000000000000000000000000008000000000000000000000000000000000000200020000000020000000000000000000800000000000000000000000010000000000800000000000000000000000000000000000020000000000000000000000000000000000000000000000000000000000000000000000000000020000000000000000002000000000000000000000000000000000000000000000000000020000000000000000000000000000000000000000000000000000000000000000000",
      "type": "0x2",
      "transactionHash": "0x62065c2097db92386f3f6c2d488f4a40cd3f9973d905fdc19b12b5d553e20633",
      "transactionIndex": "0x22",
      "blockHash": "0xf50d80330b71266d5bf5c5e112ecb918340e3538152324e053f6a573c3dd5c84",
      "blockNumber": "0x12c0e85",
      "gasUsed": "0xc874",
      "effectiveGasPrice": "0xc69a",
      "from": "0xa89543a7145c68e52a4d584f1ceb123605131211",
      "to": "0x4070c8325e278ca1056e602e08d16d2d5cd79b27",
      "contractAddress": null,
      "l1BaseFeeScalar": "0x44d",
      "l1BlobBaseFee": "0x1",
      "l1BlobBaseFeeScalar": "0xa118b",
      "l1Fee": "0x9d52a296",
      "l1GasPrice": "0x594e87dd",
      "l1GasUsed": "0x640"
    }
  ],
  "libraries": [],
  "pending": [],
  "returns": {},
  "timestamp": 1735097323,
  "chain": 84532,
  "commit": "0569b3b"
}