{
  "transactions": [
    {
      "hash": "0xfc148670f79ead7e946f4e6b06f498d8e514c1ebd71d53abee3970e9e85a5d79",
      "transactionType": "CALL",
      "contractName": null,
      "contractAddress": "0x4070c8325e278ca1056e602e08d16d2d5cd79b27",
      "function": "mint(address,uint256)",
      "arguments": [
        "0x9274Ea02f24bD7Db0123CdF6Da789Ae3faffaF33",
        "100000000000000000000"
      ],
      "transaction": {
        "from": "0xa89543a7145c68e52a4d584f1ceb123605131211",
        "to": "0x4070c8325e278ca1056e602e08d16d2d5cd79b27",
        "gas": "0x114f0",
        "value": "0x0",
        "input": "0x40c10f190000000000000000000000009274ea02f24bd7db0123cdf6da789ae3faffaf330000000000000000000000000000000000000000000000056bc75e2d63100000",
        "nonce": "0x25",
        "chainId": "0x14a34"
      },
      "additionalContracts": [],
      "isFixedGasLimit": false
    }
  ],
  "receipts": [
    {
      "status": "0x1",
      "cumulativeGasUsed": "0x2f1607",
      "logs": [
        {
          "address": "0x4070c8325e278ca1056e602e08d16d2d5cd79b27",
          "topics": [
            "0xddf252ad1be2c89b69c2b068fc378daa952ba7f163c4a11628f55a4df523b3ef",
            "0x0000000000000000000000000000000000000000000000000000000000000000",
            "0x0000000000000000000000009274ea02f24bd7db0123cdf6da789ae3faffaf33"
          ],
          "data": "0x0000000000000000000000000000000000000000000000056bc75e2d63100000",
          "blockHash": "0x505974ded3f332cd72bd1114c6c67c914fea5c60263f12a48ec36318f1a7d0e1",
          "blockNumber": "0x12c0f22",
          "transactionHash": "0xfc148670f79ead7e946f4e6b06f498d8e514c1ebd71d53abee3970e9e85a5d79",
          "transactionIndex": "0x18",
          "logIndex": "0x5a",
          "removed": false
        }
      ],
      "logsBloom": "0x00000000000000000000000000000000000000000000100000000000000000000000000000000000000000040000000000000000000000000000000000000000000000000000000000000008000000000000000000000000000000000000200000000000020000000000000000000800000000000000000000000010000000000000000000000000000000000000000000000020000000000000000000000000000000000000000000000000000000001000000000000000000020000000000000000002000000000000000000000000000000000000000000000000000020000000000000000000000000000000000000000000000000000000000000000000",
      "type": "0x2",
      "transactionHash": "0xfc148670f79ead7e946f4e6b06f498d8e514c1ebd71d53abee3970e9e85a5d79",
      "transactionIndex": "0x18",
      "blockHash": "0x505974ded3f332cd72bd1114c6c67c914fea5c60263f12a48ec36318f1a7d0e1",
      "blockNumber": "0x12c0f22",
      "gasUsed": "0xc880",
      "effectiveGasPrice": "0x188bb",
      "from": "0xa89543a7145c68e52a4d584f1ceb123605131211",
      "to": "0x4070c8325e278ca1056e602e08d16d2d5cd79b27",
      "contractAddress": null,
      "l1BaseFeeScalar": "0x44d",
      "l1BlobBaseFee": "0x1",
      "l1BlobBaseFeeScalar": "0xa118b",
      "l1Fee": "0x74cad6fb",
      "l1GasPrice": "0x424c8c07",
      "l1GasUsed": "0x640"
    }
  ],
  "libraries": [],
  "pending": [],
  "returns": {},
  "timestamp": 1735097638,
  "chain": 84532,
  "commit": "bade003"
}