{
  "transactions": [
    {
      "hash": "0xf5ca549482dc2e698436b91e11b7d5eb9aa4a07ca7ced78ef070eb76578e0c65",
      "transactionType": "CALL",
      "contractName": null,
      "contractAddress": "0x4070c8325e278ca1056e602e08d16d2d5cd79b27",
      "function": "mint(address,uint256)",
      "arguments": [
        "0x20B0E4EbBf3ff4F68Dc706dc4De69B63254248e7",
        "100000000000000000000"
      ],
      "transaction": {
        "from": "0xa89543a7145c68e52a4d584f1ceb123605131211",
        "to": "0x4070c8325e278ca1056e602e08d16d2d5cd79b27",
        "gas": "0x114f0",
        "value": "0x0",
        "input": "0x40c10f1900000000000000000000000020b0e4ebbf3ff4f68dc706dc4de69b63254248e70000000000000000000000000000000000000000000000056bc75e2d63100000",
        "nonce": "0x1e",
        "chainId": "0x14a34"
      },
      "additionalContracts": [],
      "isFixedGasLimit": false
    }
  ],
  "receipts": [
    {
      "status": "0x1",
      "cumulativeGasUsed": "0xe6675",
      "logs": [
        {
          "address": "0x4070c8325e278ca1056e602e08d16d2d5cd79b27",
          "topics": [
            "0xddf252ad1be2c89b69c2b068fc378daa952ba7f163c4a11628f55a4df523b3ef",
            "0x0000000000000000000000000000000000000000000000000000000000000000",
            "0x00000000000000000000000020b0e4ebbf3ff4f68dc706dc4de69b63254248e7"
          ],
          "data": "0x0000000000000000000000000000000000000000000000056bc75e2d63100000",
          "blockHash": "0x0f5503c480df41ff5770695c5c30ffd200a40278fe9448bcaadb06b2555c4e44",
          "blockNumber": "0x12bfb84",
          "transactionHash": "0xf5ca549482dc2e698436b91e11b7d5eb9aa4a07ca7ced78ef070eb76578e0c65",
          "transactionIndex": "0xb",
          "logIndex": "0x15",
          "removed": false
        }
      ],
      "logsBloom": "0x00000000000000000000000000000000000000000000000000000000000000000000000000000000000000000000000000000000000000000000000000000000000000000000000000000008000000000000000000000000000000000000200000000000020000000008000000000800000000000000000000000010000000000000000000000000000000000000000000000020000000000000000000000000000000000000000000000000000000000000000000000000000020000000000000000002000000000000000000000000000000000000000000000000000020000000000000000000000000000000000000000000000000000000500000000000",
      "type": "0x2",
      "transactionHash": "0xf5ca549482dc2e698436b91e11b7d5eb9aa4a07ca7ced78ef070eb76578e0c65",
      "transactionIndex": "0xb",
      "blockHash": "0x0f5503c480df41ff5770695c5c30ffd200a40278fe9448bcaadb06b2555c4e44",
      "blockNumber": "0x12bfb84",
      "gasUsed": "0xc880",
      "effectiveGasPrice": "0xc571",
      "from": "0xa89543a7145c68e52a4d584f1ceb123605131211",
      "to": "0x4070c8325e278ca1056e602e08d16d2d5cd79b27",
      "contractAddress": null,
      "l1BaseFeeScalar": "0x44d",
      "l1BlobBaseFee": "0x57",
      "l1BlobBaseFeeScalar": "0xa118b",
      "l1Fee": "0x3325",
      "l1GasPrice": "0x104e",
      "l1GasUsed": "0x640"
    }
  ],
  "libraries": [],
  "pending": [],
  "returns": {},
  "timestamp": 1735087592,
  "chain": 84532,
  "commit": "8e52c77"
}