{
  "transactions": [
    {
      "hash": "0xa28abc30cb113da67927c897715e33b3e44349a2b1d5c207041ae643e0bfbe4d",
      "transactionType": "CALL",
      "contractName": null,
      "contractAddress": "0x4070c8325e278ca1056e602e08d16d2d5cd79b27",
      "function": "mint(address,uint256)",
      "arguments": [
        "0x8DfB581e1DEcE21851f21950A526f79e7A62e2d5",
        "100000000000000000000"
      ],
      "transaction": {
        "from": "0xa89543a7145c68e52a4d584f1ceb123605131211",
        "to": "0x4070c8325e278ca1056e602e08d16d2d5cd79b27",
        "gas": "0x114f0",
        "value": "0x0",
        "input": "0x40c10f190000000000000000000000008dfb581e1dece21851f21950a526f79e7a62e2d50000000000000000000000000000000000000000000000056bc75e2d63100000",
        "nonce": "0x21",
        "chainId": "0x14a34"
      },
      "additionalContracts": [],
      "isFixedGasLimit": false
    }
  ],
  "receipts": [
    {
      "status": "0x1",
      "cumulativeGasUsed": "0x4d2a51",
      "logs": [
        {
          "address": "0x4070c8325e278ca1056e602e08d16d2d5cd79b27",
          "topics": [
            "0xddf252ad1be2c89b69c2b068fc378daa952ba7f163c4a11628f55a4df523b3ef",
            "0x0000000000000000000000000000000000000000000000000000000000000000",
            "0x0000000000000000000000008dfb581e1dece21851f21950a526f79e7a62e2d5"
          ],
          "data": "0x0000000000000000000000000000000000000000000000056bc75e2d63100000",
          "blockHash": "0x70130d040d1d64af98766bf4211a90dc651ddba816637655209b7de2ab513fea",
          "blockNumber": "0x12c0d95",
          "transactionHash": "0xa28abc30cb113da67927c897715e33b3e44349a2b1d5c207041ae643e0bfbe4d",
          "transactionIndex": "0x10",
          "logIndex": "0x63",
          "removed": false
        }
      ],
      "logsBloom": "0x00000000000000000000000000000000000000000000000000000000040000000000000000000000000000000000000800000000000000000000000000000000000000000000000000000008000000000000000000000000000000000000200000000000020000000000000000000800000000000000000000000010000000000000000000000000000000000000000000000020000000000000000000000000000000000000000000000000000000000000000000000000000022000000000000000002000000000000000000000000000000000000000000000000000020000000000000000000000000000000000000000000000000000000000000000000",
      "type": "0x2",
      "transactionHash": "0xa28abc30cb113da67927c897715e33b3e44349a2b1d5c207041ae643e0bfbe4d",
      "transactionIndex": "0x10",
      "blockHash": "0x70130d040d1d64af98766bf4211a90dc651ddba816637655209b7de2ab513fea",
      "blockNumber": "0x12c0d95",
      "gasUsed": "0xc880",
      "effectiveGasPrice": "0x188aa",
      "from": "0xa89543a7145c68e52a4d584f1ceb123605131211",
      "to": "0x4070c8325e278ca1056e602e08d16d2d5cd79b27",
      "contractAddress": null,
      "l1BaseFeeScalar": "0x44d",
      "l1BlobBaseFee": "0x1",
      "l1BlobBaseFeeScalar": "0xa118b",
      "l1Fee": "0xdf5fba31",
      "l1GasPrice": "0x7ecd3e4d",
      "l1GasUsed": "0x640"
    }
  ],
  "libraries": [],
  "pending": [],
  "returns": {},
  "timestamp": 1735096843,
  "chain": 84532,
  "commit": "0569b3b"
}