{
  "transactions": [
    {
      "hash": "0x4bf25a59a15e97d542eef2044077056de929e6085902abd9f7ab28ec809e82dc",
      "transactionType": "CALL",
      "contractName": null,
      "contractAddress": "0x4070c8325e278ca1056e602e08d16d2d5cd79b27",
      "function": "mint(address,uint256)",
      "arguments": [
        "0x9aA6baB2aEc576b87630016CBA12eAd7B6bf937a",
        "100000000000000000000"
      ],
      "transaction": {
        "from": "0xa89543a7145c68e52a4d584f1ceb123605131211",
        "to": "0x4070c8325e278ca1056e602e08d16d2d5cd79b27",
        "gas": "0x114f0",
        "value": "0x0",
        "input": "0x40c10f190000000000000000000000009aa6bab2aec576b87630016cba12ead7b6bf937a0000000000000000000000000000000000000000000000056bc75e2d63100000",
        "nonce": "0x1c",
        "chainId": "0x14a34"
      },
      "additionalContracts": [],
      "isFixedGasLimit": false
    }
  ],
  "receipts": [
    {
      "status": "0x1",
      "cumulativeGasUsed": "0x2314de",
      "logs": [
        {
          "address": "0x4070c8325e278ca1056e602e08d16d2d5cd79b27",
          "topics": [
            "0xddf252ad1be2c89b69c2b068fc378daa952ba7f163c4a11628f55a4df523b3ef",
            "0x0000000000000000000000000000000000000000000000000000000000000000",
            "0x0000000000000000000000009aa6bab2aec576b87630016cba12ead7b6bf937a"
          ],
          "data": "0x0000000000000000000000000000000000000000000000056bc75e2d63100000",
          "blockHash": "0x8517b7dd064104653ecbe1b10764160d61ba3299826f35a990b7d31c314e1fa5",
          "blockNumber": "0x12bed57",
          "transactionHash": "0x4bf25a59a15e97d542eef2044077056de929e6085902abd9f7ab28ec809e82dc",
          "transactionIndex": "0x11",
          "logIndex": "0x24",
          "removed": false
        }
      ],
      "logsBloom": "0x00000000000000000000000000000000000000000000000000000000000000000000000000000200000000000000000000000000000000000000000000000000000000000000000000000008000000000000000000000000000000000000200000000000020000000000000000000800000000000000000000000010000000000000000000000010000000000000000000000020000000000000000000000000000000000000000000000000000000000000000000000000000020000000000000000002000000000000000000000000000000000000000800000000000020000000000000000000000000000000000000000000000000000000000000000000",
      "type": "0x2",
      "transactionHash": "0x4bf25a59a15e97d542eef2044077056de929e6085902abd9f7ab28ec809e82dc",
      "transactionIndex": "0x11",
      "blockHash": "0x8517b7dd064104653ecbe1b10764160d61ba3299826f35a990b7d31c314e1fa5",
      "blockNumber": "0x12bed57",
      "gasUsed": "0xc880",
      "effectiveGasPrice": "0x385",
      "from": "0xa89543a7145c68e52a4d584f1ceb123605131211",
      "to": "0x4070c8325e278ca1056e602e08d16d2d5cd79b27",
      "contractAddress": null,
      "l1BaseFeeScalar": "0x44d",
      "l1BlobBaseFee": "0x1",
      "l1BlobBaseFeeScalar": "0xa118b",
      "l1Fee": "0x305971a",
      "l1GasPrice": "0x1b723df",
      "l1GasUsed": "0x640"
    }
  ],
  "libraries": [],
  "pending": [],
  "returns": {},
  "timestamp": 1735080335,
  "chain": 84532,
  "commit": "8ed05ba"
}