{
  "transactions": [
    {
      "hash": "0xc248e1a9ac4c75ac12fd9e6c859c77034c8bb3b913e4c59af35cec573ccbe6b9",
      "transactionType": "CALL",
      "contractName": null,
      "contractAddress": "0x4070c8325e278ca1056e602e08d16d2d5cd79b27",
      "function": "mint(address,uint256)",
      "arguments": [
        "0x22a30787E360741fB0aBa7f3A90e5AB2340F9435",
        "100000000000000000000"
      ],
      "transaction": {
        "from": "0xa89543a7145c68e52a4d584f1ceb123605131211",
        "to": "0x4070c8325e278ca1056e602e08d16d2d5cd79b27",
        "gas": "0xb8ad",
        "value": "0x0",
        "input": "0x40c10f1900000000000000000000000022a30787e360741fb0aba7f3a90e5ab2340f94350000000000000000000000000000000000000000000000056bc75e2d63100000",
        "nonce": "0xf",
        "chainId": "0x14a34"
      },
      "additionalContracts": [],
      "isFixedGasLimit": false
    }
  ],
  "receipts": [
    {
      "status": "0x1",
      "cumulativeGasUsed": "0x1316cd",
      "logs": [
        {
          "address": "0x4070c8325e278ca1056e602e08d16d2d5cd79b27",
          "topics": [
            "0xddf252ad1be2c89b69c2b068fc378daa952ba7f163c4a11628f55a4df523b3ef",
            "0x0000000000000000000000000000000000000000000000000000000000000000",
            "0x00000000000000000000000022a30787e360741fb0aba7f3a90e5ab2340f9435"
          ],
          "data": "0x0000000000000000000000000000000000000000000000056bc75e2d63100000",
          "blockHash": "0xd23a498daf427c395564a2fb4f9fca4d6262e3bbdc2f7e35d2da285107df1e83",
          "blockNumber": "0x12af023",
          "transactionHash": "0xc248e1a9ac4c75ac12fd9e6c859c77034c8bb3b913e4c59af35cec573ccbe6b9",
          "transactionIndex": "0xb",
          "logIndex": "0x1b",
          "removed": false
        }
      ],
      "logsBloom": "0x00000000000000000000000000000000000000000000000000000000000000000000000000000000000000000000000000000001000000000000000000000000000000000000000000000008000000000000000000040000000000000000200000000000020000000000000000000800000000000000000000000010000000000000000000000000000000000000000000000020000000000000000000004000000000000000000000000000000000000000000000000000000020000000000000000002000000000000000000000000000000000000000000000000000020000000000000000000000000000000000000000000000000000000000000000000",
      "type": "0x2",
      "transactionHash": "0xc248e1a9ac4c75ac12fd9e6c859c77034c8bb3b913e4c59af35cec573ccbe6b9",
      "transactionIndex": "0xb",
      "blockHash": "0xd23a498daf427c395564a2fb4f9fca4d6262e3bbdc2f7e35d2da285107df1e83",
      "blockNumber": "0x12af023",
      "gasUsed": "0x85b4",
      "effectiveGasPrice": "0x1880b",
      "from": "0xa89543a7145c68e52a4d584f1ceb123605131211",
      "to": "0x4070c8325e278ca1056e602e08d16d2d5cd79b27",
      "contractAddress": null,
      "l1BaseFeeScalar": "0x44d",
      "l1BlobBaseFee": "0x2b6a6dd626",
      "l1BlobBaseFeeScalar": "0xa118b",
      "l1Fee": "0xb347bc008ab",
      "l1GasPrice": "0x21877352c",
      "l1GasUsed": "0x640"
    }
  ],
  "libraries": [],
  "pending": [],
  "returns": {},
  "timestamp": 1734950695,
  "chain": 84532,
  "commit": "d9a346f"
}