{
  "transactions": [
    {
      "hash": "0x48ce85c000754d8b01e346dc1cd597f34c0b6705e9f9f7813e71b3bf09e5fadb",
      "transactionType": "CALL",
      "contractName": null,
      "contractAddress": "0x4070c8325e278ca1056e602e08d16d2d5cd79b27",
      "function": "mint(address,uint256)",
      "arguments": [
        "0x26BD9891b919A069dE9E1801F9CD5212e4f5EB4B",
        "100000000000000000000"
      ],
      "transaction": {
        "from": "0xa89543a7145c68e52a4d584f1ceb123605131211",
        "to": "0x4070c8325e278ca1056e602e08d16d2d5cd79b27",
        "gas": "0x114f0",
        "value": "0x0",
        "input": "0x40c10f1900000000000000000000000026bd9891b919a069de9e1801f9cd5212e4f5eb4b0000000000000000000000000000000000000000000000056bc75e2d63100000",
        "nonce": "0x1a",
        "chainId": "0x14a34"
      },
      "additionalContracts": [],
      "isFixedGasLimit": false
    }
  ],
  "receipts": [
    {
      "status": "0x1",
      "cumulativeGasUsed": "0x102b0b",
      "logs": [
        {
          "address": "0x4070c8325e278ca1056e602e08d16d2d5cd79b27",
          "topics": [
            "0xddf252ad1be2c89b69c2b068fc378daa952ba7f163c4a11628f55a4df523b3ef",
            "0x0000000000000000000000000000000000000000000000000000000000000000",
            "0x00000000000000000000000026bd9891b919a069de9e1801f9cd5212e4f5eb4b"
          ],
          "data": "0x0000000000000000000000000000000000000000000000056bc75e2d63100000",
          "blockHash": "0x57b3f92fcccc90de8de2c28315cb27c1a1e8a8e2e2f051c92d4c27c6f451abb7",
          "blockNumber": "0x12be26d",
          "transactionHash": "0x48ce85c000754d8b01e346dc1cd597f34c0b6705e9f9f7813e71b3bf09e5fadb",
          "transactionIndex": "0xb",
          "logIndex": "0x14",
          "removed": false
        }
      ],
      "logsBloom": "0x000000000000000000000000000000000000000000000000000000000000000000000000000000000000000000000000000000000000000000000000000000000000000000000000000000080000000000000000000000000000000000002000000000000200000000000000000008000000000000000000000000100000000000000000000000000000000000000000000000200000000000000000000000000000000000000000000000000000000000000000000000000000a0080000000000000002000000000000001000000000000000000000000000000000000020000000000000000000000000000000000000000000000000000000000000000000",
      "type": "0x2",
      "transactionHash": "0x48ce85c000754d8b01e346dc1cd597f34c0b6705e9f9f7813e71b3bf09e5fadb",
      "transactionIndex": "0xb",
      "blockHash": "0x57b3f92fcccc90de8de2c28315cb27c1a1e8a8e2e2f051c92d4c27c6f451abb7",
      "blockNumber": "0x12be26d",
      "gasUsed": "0xc880",
      "effectiveGasPrice": "0xc5d6",
      "from": "0xa89543a7145c68e52a4d584f1ceb123605131211",
      "to": "0x4070c8325e278ca1056e602e08d16d2d5cd79b27",
      "contractAddress": null,
      "l1BaseFeeScalar": "0x44d",
      "l1BlobBaseFee": "0x1",
      "l1BlobBaseFeeScalar": "0xa118b",
      "l1Fee": "0x2f3ce289",
      "l1GasPrice": "0x1ad0b753",
      "l1GasUsed": "0x640"
    }
  ],
  "libraries": [],
  "pending": [],
  "returns": {},
  "timestamp": 1735074747,
  "chain": 84532,
  "commit": "621db9d"
}