{
  "transactions": [
    {
      "hash": "0xc7341d04f3133ffc0b09d10768bf97b5ee7a4003830f77d3a2b6e1277421d384",
      "transactionType": "CALL",
      "contractName": null,
      "contractAddress": "0x4070c8325e278ca1056e602e08d16d2d5cd79b27",
      "function": "mint(address,uint256)",
      "arguments": [
        "0x5dE7584039248638B9DdF72670318ba3fD2037CE",
        "100000000000000000000"
      ],
      "transaction": {
        "from": "0xa89543a7145c68e52a4d584f1ceb123605131211",
        "to": "0x4070c8325e278ca1056e602e08d16d2d5cd79b27",
        "gas": "0xb8ad",
        "value": "0x0",
        "input": "0x40c10f190000000000000000000000005de7584039248638b9ddf72670318ba3fd2037ce0000000000000000000000000000000000000000000000056bc75e2d63100000",
        "nonce": "0x15",
        "chainId": "0x14a34"
      },
      "additionalContracts": [],
      "isFixedGasLimit": false
    }
  ],
  "receipts": [
    {
      "status": "0x1",
      "cumulativeGasUsed": "0x7bd17d",
      "logs": [
        {
          "address": "0x4070c8325e278ca1056e602e08d16d2d5cd79b27",
          "topics": [
            "0xddf252ad1be2c89b69c2b068fc378daa952ba7f163c4a11628f55a4df523b3ef",
            "0x0000000000000000000000000000000000000000000000000000000000000000",
            "0x0000000000000000000000005de7584039248638b9ddf72670318ba3fd2037ce"
          ],
          "data": "0x0000000000000000000000000000000000000000000000056bc75e2d63100000",
          "blockHash": "0xc577cbc116259f8ec2bd6673e4f88232ba64e631824ce98cd3315f18b3421ffe",
          "blockNumber": "0x12b73e3",
          "transactionHash": "0xc7341d04f3133ffc0b09d10768bf97b5ee7a4003830f77d3a2b6e1277421d384",
          "transactionIndex": "0x10",
          "logIndex": "0x66",
          "removed": false
        }
      ],
      "logsBloom": "0x00000000000000000000000000000000000000000000000000000000000000000000000000000000000000000000000000000000000000000000000000000000000000000000000000000008000000000000000000000000000000001000200000000000020000000000000000000800000002000000000000000010000000000000000000000000000000000000000000000020000000000000000000000000000000000000000000000000000000000000000000000000000020000000000000000002000000000000000000000000000000000000000000000000000022000000000000000000000000000000000000000000000000000000000000000000",
      "type": "0x2",
      "transactionHash": "0xc7341d04f3133ffc0b09d10768bf97b5ee7a4003830f77d3a2b6e1277421d384",
      "transactionIndex": "0x10",
      "blockHash": "0xc577cbc116259f8ec2bd6673e4f88232ba64e631824ce98cd3315f18b3421ffe",
      "blockNumber": "0x12b73e3",
      "gasUsed": "0x85b4",
      "effectiveGasPrice": "0x304",
      "from": "0xa89543a7145c68e52a4d584f1ceb123605131211",
      "to": "0x4070c8325e278ca1056e602e08d16d2d5cd79b27",
      "contractAddress": null,
      "l1BaseFeeScalar": "0x44d",
      "l1BlobBaseFee": "0x224dc5575b",
      "l1BlobBaseFeeScalar": "0xa118b",
      "l1Fee": "0x8dcce38d4d1",
      "l1GasPrice": "0x2fd52bd26",
      "l1GasUsed": "0x640"
    }
  ],
  "libraries": [],
  "pending": [],
  "returns": {},
  "timestamp": 1735018151,
  "chain": 84532,
  "commit": "f0b4b00"
}