{
  "transactions": [
    {
      "hash": "0xa6751e7f999e6c38da45cf5fb36897136b7ad98197e6878615a489111ca7f3f6",
      "transactionType": "CALL",
      "contractName": null,
      "contractAddress": "0x4070c8325e278ca1056e602e08d16d2d5cd79b27",
      "function": "mint(address,uint256)",
      "arguments": [
        "0x13F435dcF237573E694dB590b92E84303f1F783e",
        "100000000000000000000"
      ],
      "transaction": {
        "from": "0xa89543a7145c68e52a4d584f1ceb123605131211",
        "to": "0x4070c8325e278ca1056e602e08d16d2d5cd79b27",
        "gas": "0x114f0",
        "value": "0x0",
        "input": "0x40c10f1900000000000000000000000013f435dcf237573e694db590b92e84303f1f783e0000000000000000000000000000000000000000000000056bc75e2d63100000",
        "nonce": "0x12",
        "chainId": "0x14a34"
      },
      "additionalContracts": [],
      "isFixedGasLimit": false
    }
  ],
  "receipts": [
    {
      "status": "0x1",
      "cumulativeGasUsed": "0xa521d0",
      "logs": [
        {
          "address": "0x4070c8325e278ca1056e602e08d16d2d5cd79b27",
          "topics": [
            "0xddf252ad1be2c89b69c2b068fc378daa952ba7f163c4a11628f55a4df523b3ef",
            "0x0000000000000000000000000000000000000000000000000000000000000000",
            "0x00000000000000000000000013f435dcf237573e694db590b92e84303f1f783e"
          ],
          "data": "0x0000000000000000000000000000000000000000000000056bc75e2d63100000",
          "blockHash": "0x4dfd6c52002ef9d132938b35cb3d1a0b51ad7a4143889b50e79eb0ce10a1e521",
          "blockNumber": "0x12afe45",
          "transactionHash": "0xa6751e7f999e6c38da45cf5fb36897136b7ad98197e6878615a489111ca7f3f6",
          "transactionIndex": "0x20",
          "logIndex": "0xba",
          "removed": false
        }
      ],
      "logsBloom": "0x00000000000000000000000000000000000000000000000000000000000000000000000000000000000000000000000000000000200000000000000000000000000000000000000000000008000000000000000000000000000000000000200000000000020000000000000000000800000000000000000000000010000000000000000000400000000000000000000000000020000000000000000000000000000000000000000000000020000000000000000000000000000020000000000000000002000000000000000000000000000000000000000000000000000020000000000000000000000000000000000000000000000000000000000000000000",
      "type": "0x2",
      "transactionHash": "0xa6751e7f999e6c38da45cf5fb36897136b7ad98197e6878615a489111ca7f3f6",
      "transactionIndex": "0x20",
      "blockHash": "0x4dfd6c52002ef9d132938b35cb3d1a0b51ad7a4143889b50e79eb0ce10a1e521",
      "blockNumber": "0x12afe45",
      "gasUsed": "0xc880",
      "effectiveGasPrice": "0x187f0",
      "from": "0xa89543a7145c68e52a4d584f1ceb123605131211",
      "to": "0x4070c8325e278ca1056e602e08d16d2d5cd79b27",
      "contractAddress": null,
      "l1BaseFeeScalar": "0x44d",
      "l1BlobBaseFee": "0x3925f50e6e",
      "l1BlobBaseFeeScalar": "0xa118b",
      "l1Fee": "0xebe69dfe647",
      "l1GasPrice": "0x1f99c2187",
      "l1GasUsed": "0x640"
    }
  ],
  "libraries": [],
  "pending": [],
  "returns": {},
  "timestamp": 1734957932,
  "chain": 84532,
  "commit": "1e058c9"
}