{
  "transactions": [
    {
      "hash": "0x20dc3fe8499d3678c36c90536a07749ab7832a6a43e7a890e1739282caaac5db",
      "transactionType": "CALL",
      "contractName": null,
      "contractAddress": "0x4070c8325e278ca1056e602e08d16d2d5cd79b27",
      "function": "mint(address,uint256)",
      "arguments": [
        "0x9714A3e0f6B153b4f2c6828eFA8D77EFB400e670",
        "100000000000000000000"
      ],
      "transaction": {
        "from": "0xa89543a7145c68e52a4d584f1ceb123605131211",
        "to": "0x4070c8325e278ca1056e602e08d16d2d5cd79b27",
        "gas": "0x114df",
        "value": "0x0",
        "input": "0x40c10f190000000000000000000000009714a3e0f6b153b4f2c6828efa8d77efb400e6700000000000000000000000000000000000000000000000056bc75e2d63100000",
        "nonce": "0x1f",
        "chainId": "0x14a34"
      },
      "additionalContracts": [],
      "isFixedGasLimit": false
    }
  ],
  "receipts": [
    {
      "status": "0x1",
      "cumulativeGasUsed": "0x1f4242",
      "logs": [
        {
          "address": "0x4070c8325e278ca1056e602e08d16d2d5cd79b27",
          "topics": [
            "0xddf252ad1be2c89b69c2b068fc378daa952ba7f163c4a11628f55a4df523b3ef",
            "0x0000000000000000000000000000000000000000000000000000000000000000",
            "0x0000000000000000000000009714a3e0f6b153b4f2c6828efa8d77efb400e670"
          ],
          "data": "0x0000000000000000000000000000000000000000000000056bc75e2d63100000",
          "blockHash": "0xe229b34573a52df50082c1c415d2a865b126c8023bd55ba279b771dbfe20b175",
          "blockNumber": "0x12bfba7",
          "transactionHash": "0x20dc3fe8499d3678c36c90536a07749ab7832a6a43e7a890e1739282caaac5db",
          "transactionIndex": "0x15",
          "logIndex": "0x1e",
          "removed": false
        }
      ],
      "logsBloom": "0x00200000000000000000000000000000000000000000000000000000000000000000000000000000000000000000000000000000000000000000000000000000000000000000000000000008000000000000000000000000000020000000200000000000020000000000000000000800000000000000000000000010000000000000000000000000000000000000000000000020000000000000000000000000000000000000000000000000000000000000000000000000000020000000000000000002000000000000000000000000000000000000000000000000000020000000000080000000000000000000000000000000000000000000000000000000",
      "type": "0x2",
      "transactionHash": "0x20dc3fe8499d3678c36c90536a07749ab7832a6a43e7a890e1739282caaac5db",
      "transactionIndex": "0x15",
      "blockHash": "0xe229b34573a52df50082c1c415d2a865b126c8023bd55ba279b771dbfe20b175",
      "blockNumber": "0x12bfba7",
      "gasUsed": "0xc874",
      "effectiveGasPrice": "0x2f5",
      "from": "0xa89543a7145c68e52a4d584f1ceb123605131211",
      "to": "0x4070c8325e278ca1056e602e08d16d2d5cd79b27",
      "contractAddress": null,
      "l1BaseFeeScalar": "0x44d",
      "l1BlobBaseFee": "0x4e",
      "l1BlobBaseFeeScalar": "0xa118b",
      "l1Fee": "0x3071",
      "l1GasPrice": "0x1016",
      "l1GasUsed": "0x640"
    }
  ],
  "libraries": [],
  "pending": [],
  "returns": {},
  "timestamp": 1735087662,
  "chain": 84532,
  "commit": "8e52c77"
}