{
  "transactions": [
    {
      "hash": "0x6086e935eee08fbdb4845185375365f4a64782d27f73cfcaf68a5f066f66d139",
      "transactionType": "CALL",
      "contractName": null,
      "contractAddress": "0x4070c8325e278ca1056e602e08d16d2d5cd79b27",
      "function": "mint(address,uint256)",
      "arguments": [
        "0x1508295FAAFdB419733340F1Acb1E9A3b5548Ca2",
        "100000000000000000000"
      ],
      "transaction": {
        "from": "0xa89543a7145c68e52a4d584f1ceb123605131211",
        "to": "0x4070c8325e278ca1056e602e08d16d2d5cd79b27",
        "gas": "0x114f0",
        "value": "0x0",
        "input": "0x40c10f190000000000000000000000001508295faafdb419733340f1acb1e9a3b5548ca20000000000000000000000000000000000000000000000056bc75e2d63100000",
        "nonce": "0x17",
        "chainId": "0x14a34"
      },
      "additionalContracts": [],
      "isFixedGasLimit": false
    }
  ],
  "receipts": [
    {
      "status": "0x1",
      "cumulativeGasUsed": "0x346ec3",
      "logs": [
        {
          "address": "0x4070c8325e278ca1056e602e08d16d2d5cd79b27",
          "topics": [
            "0xddf252ad1be2c89b69c2b068fc378daa952ba7f163c4a11628f55a4df523b3ef",
            "0x0000000000000000000000000000000000000000000000000000000000000000",
            "0x0000000000000000000000001508295faafdb419733340f1acb1e9a3b5548ca2"
          ],
          "data": "0x0000000000000000000000000000000000000000000000056bc75e2d63100000",
          "blockHash": "0xa22decd82787da10c95719ae9cc1d3ac40c3c5455e0a09cfda35249aad58a3ea",
          "blockNumber": "0x12b8709",
          "transactionHash": "0x6086e935eee08fbdb4845185375365f4a64782d27f73cfcaf68a5f066f66d139",
          "transactionIndex": "0x20",
          "logIndex": "0x44",
          "removed": false
        }
      ],
      "logsBloom": "0x00000000000000000000000000000000000000000000000000000000000000000000000000000000000000000000000000000000000080000000000000000000000000000000000000000008000000000000000000000000000000000000200000000000020000000000000000000800000000000000000000000010000000000004000000000000000000000000000000000020000000000000000000000000000000000000000000000000000000000000000000000000000020000000000000000002000000001000000000000000000000000000000000000000000020000000000000000000000000000000000000000000000000000000000000000000",
      "type": "0x2",
      "transactionHash": "0x6086e935eee08fbdb4845185375365f4a64782d27f73cfcaf68a5f066f66d139",
      "transactionIndex": "0x20",
      "blockHash": "0xa22decd82787da10c95719ae9cc1d3ac40c3c5455e0a09cfda35249aad58a3ea",
      "blockNumber": "0x12b8709",
      "gasUsed": "0xc880",
      "effectiveGasPrice": "0x587",
      "from": "0xa89543a7145c68e52a4d584f1ceb123605131211",
      "to": "0x4070c8325e278ca1056e602e08d16d2d5cd79b27",
      "contractAddress": null,
      "l1BaseFeeScalar": "0x44d",
      "l1BlobBaseFee": "0x1f3e2b33d",
      "l1BlobBaseFeeScalar": "0xa118b",
      "l1Fee": "0x9057a1f450",
      "l1GasPrice": "0x8cbb90626",
      "l1GasUsed": "0x640"
    }
  ],
  "libraries": [],
  "pending": [],
  "returns": {},
  "timestamp": 1735027955,
  "chain": 84532,
  "commit": "e94e7a0"
}