{
  "transactions": [
    {
      "hash": "0x2f2af16770affdb1828e3dd5b06850dc55bd25f67348df05de6c4e9182708d37",
      "transactionType": "CALL",
      "contractName": null,
      "contractAddress": "0x4070c8325e278ca1056e602e08d16d2d5cd79b27",
      "function": "mint(address,uint256)",
      "arguments": [
        "0x5e7132197dcB30B390d0eb6eB6A482115fFc1d1b",
        "100000000000000000000"
      ],
      "transaction": {
        "from": "0xa89543a7145c68e52a4d584f1ceb123605131211",
        "to": "0x4070c8325e278ca1056e602e08d16d2d5cd79b27",
        "gas": "0x114f0",
        "value": "0x0",
        "input": "0x40c10f190000000000000000000000005e7132197dcb30b390d0eb6eb6a482115ffc1d1b0000000000000000000000000000000000000000000000056bc75e2d63100000",
        "nonce": "0x27",
        "chainId": "0x14a34"
      },
      "additionalContracts": [],
      "isFixedGasLimit": false
    }
  ],
  "receipts": [
    {
      "status": "0x1",
      "cumulativeGasUsed": "0x32a7b9",
      "logs": [
        {
          "address": "0x4070c8325e278ca1056e602e08d16d2d5cd79b27",
          "topics": [
            "0xddf252ad1be2c89b69c2b068fc378daa952ba7f163c4a11628f55a4df523b3ef",
            "0x0000000000000000000000000000000000000000000000000000000000000000",
            "0x0000000000000000000000005e7132197dcb30b390d0eb6eb6a482115ffc1d1b"
          ],
          "data": "0x0000000000000000000000000000000000000000000000056bc75e2d63100000",
          "blockHash": "0x6954d7cf10ffe9ad6f17dc1cffa432e636ff3d53fe13a3e54b4eaecc3d45e899",
          "blockNumber": "0x12c1358",
          "transactionHash": "0x2f2af16770affdb1828e3dd5b06850dc55bd25f67348df05de6c4e9182708d37",
          "transactionIndex": "0x16",
          "logIndex": "0x48",
          "removed": false
        }
      ],
      "logsBloom": "0x00000000000000000000000000000000000000000000000000000000000000000000000000000000000000000000000000000000000000000000000000000000000000000000000000000008000000000000000000000000000000000000200000000000020000000000000000000800000000000000000000000010000000000000000000000000000000000000000000000020000000000000080000000000000000000000000000000000000000000000000000000000004020000000000000000002000000004000000000000000000000000000000000000000000020000000000000000000000000000000000000000000000000000000000000000000",
      "type": "0x2",
      "transactionHash": "0x2f2af16770affdb1828e3dd5b06850dc55bd25f67348df05de6c4e9182708d37",
      "transactionIndex": "0x16",
      "blockHash": "0x6954d7cf10ffe9ad6f17dc1cffa432e636ff3d53fe13a3e54b4eaecc3d45e899",
      "blockNumber": "0x12c1358",
      "gasUsed": "0xc880",
      "effectiveGasPrice": "0x18941",
      "from": "0xa89543a7145c68e52a4d584f1ceb123605131211",
      "to": "0x4070c8325e278ca1056e602e08d16d2d5cd79b27",
      "contractAddress": null,
      "l1BaseFeeScalar": "0x44d",
      "l1BlobBaseFee": "0x1",
      "l1BlobBaseFeeScalar": "0xa118b",
      "l1Fee": "0x259214b5",
      "l1GasPrice": "0x1553dac8",
      "l1GasUsed": "0x640"
    }
  ],
  "libraries": [],
  "pending": [],
  "returns": {},
  "timestamp": 1735099794,
  "chain": 84532,
  "commit": "bade003"
}