{
  "transactions": [
    {
      "hash": "0x53d116576698c38cbc090ad907081708544d6040ccff13e8f8dfcfd631eca80e",
      "transactionType": "CALL",
      "contractName": null,
      "contractAddress": "0x4070c8325e278ca1056e602e08d16d2d5cd79b27",
      "function": "mint(address,uint256)",
      "arguments": [
        "0x5Be42377fb541F5604065EB33A19C4F05231bc1C",
        "100000000000000000000"
      ],
      "transaction": {
        "from": "0xa89543a7145c68e52a4d584f1ceb123605131211",
        "to": "0x4070c8325e278ca1056e602e08d16d2d5cd79b27",
        "gas": "0x114f0",
        "value": "0x0",
        "input": "0x40c10f190000000000000000000000005be42377fb541f5604065eb33a19c4f05231bc1c0000000000000000000000000000000000000000000000056bc75e2d63100000",
        "nonce": "0x29",
        "chainId": "0x14a34"
      },
      "additionalContracts": [],
      "isFixedGasLimit": false
    }
  ],
  "receipts": [
    {
      "status": "0x1",
      "cumulativeGasUsed": "0x224d95",
      "logs": [
        {
          "address": "0x4070c8325e278ca1056e602e08d16d2d5cd79b27",
          "topics": [
            "0xddf252ad1be2c89b69c2b068fc378daa952ba7f163c4a11628f55a4df523b3ef",
            "0x0000000000000000000000000000000000000000000000000000000000000000",
            "0x0000000000000000000000005be42377fb541f5604065eb33a19c4f05231bc1c"
          ],
          "data": "0x0000000000000000000000000000000000000000000000056bc75e2d63100000",
          "blockHash": "0x5f15cf87eb66ca0711f08d17f86467043ee0fe21ddde118a90e7b07e423a3eed",
          "blockNumber": "0x12c1954",
          "transactionHash": "0x53d116576698c38cbc090ad907081708544d6040ccff13e8f8dfcfd631eca80e",
          "transactionIndex": "0x10",
          "logIndex": "0x29",
          "removed": false
        }
      ],
      "logsBloom": "0x00000000000000000000000000000000000000000000000000000000000000000000000000000000000000000000000000000000000000000000000000000000000000000000000000000008000000000000000000000000000000000000200000000000020000000000000000000800000000000000000000000010000000000000000000000000100000000000000000000020000000000000000000000000000000000000000000000000000000000000000000000000000020000000000000000002000000000000000000200000000000000000000000000000000020000000000001000000000000000000000000000000000000000000000000000000",
      "type": "0x2",
      "transactionHash": "0x53d116576698c38cbc090ad907081708544d6040ccff13e8f8dfcfd631eca80e",
      "transactionIndex": "0x10",
      "blockHash": "0x5f15cf87eb66ca0711f08d17f86467043ee0fe21ddde118a90e7b07e423a3eed",
      "blockNumber": "0x12c1954",
      "gasUsed": "0xc880",
      "effectiveGasPrice": "0x18864",
      "from": "0xa89543a7145c68e52a4d584f1ceb123605131211",
      "to": "0x4070c8325e278ca1056e602e08d16d2d5cd79b27",
      "contractAddress": null,
      "l1BaseFeeScalar": "0x44d",
      "l1BlobBaseFee": "0x1",
      "l1BlobBaseFeeScalar": "0xa118b",
      "l1Fee": "0x1feb80cc",
      "l1GasPrice": "0x121eae94",
      "l1GasUsed": "0x640"
    }
  ],
  "libraries": [],
  "pending": [],
  "returns": {},
  "timestamp": 1735102858,
  "chain": 84532,
  "commit": "9770702"
}