{
  "transactions": [
    {
      "hash": "0x1e77177f46747db96ed509220906733b999039f149f5055733e8ad92ef8d05ca",
      "transactionType": "CALL",
      "contractName": null,
      "contractAddress": "0x4070c8325e278ca1056e602e08d16d2d5cd79b27",
      "function": "mint(address,uint256)",
      "arguments": [
        "0x3F0b0962e511e6439e18381264aF84f0e598909A",
        "100000000000000000000"
      ],
      "transaction": {
        "from": "0xa89543a7145c68e52a4d584f1ceb123605131211",
        "to": "0x4070c8325e278ca1056e602e08d16d2d5cd79b27",
        "gas": "0x114f0",
        "value": "0x0",
        "input": "0x40c10f190000000000000000000000003f0b0962e511e6439e18381264af84f0e598909a0000000000000000000000000000000000000000000000056bc75e2d63100000",
        "nonce": "0x2c",
        "chainId": "0x14a34"
      },
      "additionalContracts": [],
      "isFixedGasLimit": false
    }
  ],
  "receipts": [
    {
      "status": "0x1",
      "cumulativeGasUsed": "0x25ed46",
      "logs": [
        {
          "address": "0x4070c8325e278ca1056e602e08d16d2d5cd79b27",
          "topics": [
            "0xddf252ad1be2c89b69c2b068fc378daa952ba7f163c4a11628f55a4df523b3ef",
            "0x0000000000000000000000000000000000000000000000000000000000000000",
            "0x0000000000000000000000003f0b0962e511e6439e18381264af84f0e598909a"
          ],
          "data": "0x0000000000000000000000000000000000000000000000056bc75e2d63100000",
          "blockHash": "0x5d8562dccc7ba960b7892f85ff416a5ded7a8d5ff3ad89c0479951298eaa3298",
          "blockNumber": "0x12c1d0e",
          "transactionHash": "0x1e77177f46747db96ed509220906733b999039f149f5055733e8ad92ef8d05ca",
          "transactionIndex": "0x15",
          "logIndex": "0x39",
          "removed": false
        }
      ],
      "logsBloom": "0x00000000000000000000000000000000000000000000000000000000000000000000000000000000000000000000000000000000000000000000000000000000000000000000000000000008000000000000000000000000000000000200200000000000020000000000000000000800000000000000000000000010000000000000000000000000000000000000000000000020000000000000000000000000000000000000000000000000000000000000000000000000400020000000000000000202000000000000000000000000000000000000000000000000000020000000000000000000000000000000000000000000000000000000000000000000",
      "type": "0x2",
      "transactionHash": "0x1e77177f46747db96ed509220906733b999039f149f5055733e8ad92ef8d05ca",
      "transactionIndex": "0x15",
      "blockHash": "0x5d8562dccc7ba960b7892f85ff416a5ded7a8d5ff3ad89c0479951298eaa3298",
      "blockNumber": "0x12c1d0e",
      "gasUsed": "0xc880",
      "effectiveGasPrice": "0x1882f",
      "from": "0xa89543a7145c68e52a4d584f1ceb123605131211",
      "to": "0x4070c8325e278ca1056e602e08d16d2d5cd79b27",
      "contractAddress": null,
      "l1BaseFeeScalar": "0x44d",
      "l1BlobBaseFee": "0x1",
      "l1BlobBaseFeeScalar": "0xa118b",
      "l1Fee": "0x11fb910d8",
      "l1GasPrice": "0xa35497f3",
      "l1GasUsed": "0x640"
    }
  ],
  "libraries": [],
  "pending": [],
  "returns": {},
  "timestamp": 1735104765,
  "chain": 84532,
  "commit": "9770702"
}